S0120000537175617265576176652E737265630E
S11300000C9434000C943E000C943E000C943E007E
S11300100C943E000C943E000C943E000C943E0064
S11300200C943E000C943E000C943E000C943E0054
S11300300C943E000C943E000C943E000C943E0044
S11300400C943E000C943E000C943E000C943E0034
S11300500C943E000C943E000C943E000C943E0024
S11300600C943E000C943E0011241FBECFEFD8E048
S1130070DEBFCDBF0E9440000C9454000C940000DD
S113008084B1826084B9E0E8F0E080818064808398
S1130090E1E8F0E080818C60808384E294EF9093C7
S10F00A0890080938800FFCFF894FFCF04
S9030000FC
